:020000040000fa
:10000000f87f0020f1220000d7250000d52600004f
:1000100000000000000000000000000000000000e0
:10002000000000000000000000000000a725000004
:100030000000000000000000a7250000a725000028
:10004000a7250000a7250000a72500002125000006
:10005000a7250000a7250000a7250000a725000070
:10006000a7250000a7250000a7250000a725000060
:10007000a7250000a7250000a7250000a725000050
:10008000a7250000a7250000a7250000a725000040
:10009000a7250000a7250000a7250000a725000030
:1000a000a7250000a7250000c1260000a725000005
:020000040000fa
:1000b000f8b5c046f8bc08bc9e467047d122000087
:1000c000f8b5c046f8bc08bc9e467047a92200009f
:020000040000fa
:1000d000024a53781b06fcd47047c046004c0042cd
:1000e000f0b506241e4b44431a68002093681c197f
:1000f00063888b422cd02cd2c91a126889b29378ab
:10010000402b00d149080120842921d8002005294d
:100110001ed9cf250f261527a3881c009804800f11
:1001200068431d1235407d431b11334040195b006d
:10013000c018344080b2052c0dd8d378094a9b06ec
:100140009b0f5b009b5a594389b2884280414042d1
:10015000f0bd591ad1e70130053c80b2e4b2eae7bc
:100160003c010020122500000d4a70b510680125e1
:1001700002680c49148806220b885a43a3420ad20b
:100180008668b65c06322e4202d101339bb2f5e797
:1001900000200b8070bd002301200b80fae7c046d1
:1001a0003c010020e4010020f0b587b00700fff714
:1001b0008fff0222654c664d2378fe009343237027
:1001c0002b685b689b199a78624b510706d41969b2
:1001d0006148014019615a690240b5e0110700d534
:1001e000a0e080201a695c4940010a4002431a617c
:1001f0005a69114008435861fff76aff2b685b6832
:100200009b195b882382fff763ff2b685b689b5b0e
:100210006382fff75dff06232a687b439768ff1818
:10022000bb8823833b789b0701d505233b703f7830
:10023000fff74effff067f0f3f23002f07d12b68ec
:100240005b689b195a79454b12099b181b7aa37658
:10025000fff73eff2b6807275b689b191b791b097b
:10026000e376fff735ff03212b685b689b191a794a
:1002700023790a408b4313432371fff729ff2b682f
:100280005b689e19b2790226637b3a40bb431343f5
:100290006373fff71dff237833432370304b5b6894
:1002a0000393002b35d00125fff712ff237b1b079b
:1002b0001b0f0493fff70cff23799b079b0f0593fc
:1002c000fff706ff2378b3432370fff701ff63793d
:1002d0001d433543fff7fcfeedb2224b65711a68f2
:1002e000082311780b431370fff7f2fe657bfff7cd
:1002f000effe637bedb2bb436373059a1a4b009527
:1003000004990020039da847fff7e2fe23781e43cf
:100310002670fff7ddfe8023627b5b42134363732d
:1003200007b0f0bdd10605d480201a690a498001c2
:100330000a405be71969920600d549e7c02292019d
:100340001143196159690a435a6155e7004c00424b
:100350003c01002000440042ffcfffff12250000b7
:10036000e4010020380100200d4c0042f8b5154b87
:100370001b681b689a78402a1fd1134a15780426f7
:100380001a790f23354313400f2a00d91023602414
:100390000e4ff6b21c43fff79bfe3e700026fff7a0
:1003a00097fee4b23e71fff793fe3c73fff790feb9
:1003b0003000074bedb2dd77f8bd0220802afbd17b
:1003c000044adbe73c010020f0240000004c00421e
:1003d000014c0042f12400000b23002802d0024b04
:1003e0001860002318007047380100200b230028f4
:1003f00002d0024b5860002318007047e40100202f
:10040000034b03205a68002a01d00020586070472f
:10041000e40100200322f0b5af4b89b01b7a0592ae
:10042000002b14d0ad4b1b6803931b6804931b88ef
:100430000693ab4b1b6807930023029305936b460f
:100440001a89069b9a4205d30222a34b1a72059879
:1004500009b0f0bd0626029b07995b00cc5a039bae
:1004600003999b6849680193029b5e43019b9e1917
:1004700007233578ad081d40029bdb00cb180193a4
:100480009b79042d00d926e1280002f0f5f805003b
:1004900013000701d9000f000f21019a52790a4079
:1004a000934201d99d1aedb22c417480029b013315
:1004b0000293c4e71c41a3b28a4c7380b788a3425d
:1004c00017d9894a9b182a009bb204998978402938
:1004d00013d15b08151e12d1844a002597420ed114
:1004e00081233370733b059333785a0617d5012364
:1004f00025e0e31a9bb20022e7e7002aecd1042ba7
:10050000f2d903210f243a1338118c460a403912cc
:10051000214020402740002d5ad00a245ee05bb2e3
:10052000002b0ddb0322049bdb781340022b0bd145
:10053000019b0c321b799343019a13710923337089
:10054000bf04bf0cb780b1e7012bd0d10f22019bb4
:100550001b791a4030231343019a13710d23eee7e0
:100560000132cf3bd2b29bb2cf2b01d9032af7d1b4
:10057000152b0dd90f2906d12100032a0ad00132eb
:10058000d2b2290006e00131153bc9b29bb2efe7b8
:100590000f29f1d0022b0dd90f2806d10f290fd129
:1005a000032a00d1a4e020000fe00130023bc0b2da
:1005b0009bb2efe70f28f1d0032a33d1624604e063
:1005c0000131c9b22800032af8d0022bccd829e087
:1005d0000525c9e7013acf3bd2b29bb2cf2b01d957
:1005e000002af7d1152b0cd9002905d1111e0ad0ec
:1005f000013ad2b2210006e00139153bc9b29bb2e3
:10060000f0e70029f2d0022b0ad9002803d10029f3
:1006100010d1080006e00138023bc0b29bb2f2e7fd
:100620000028f4d0120392b2090211430f430001d3
:10063000074387e70139c9b22000022bced8f1e782
:100640001c41019ba4b21f793d09032d24d0210038
:100650001000fff745fd002819d101350123337043
:100660000f232d011f40019b3d431d713378748082
:10067000012b00d01ae71b4b9c422ad91a4be418d5
:10068000a4b2052c00d811e7452333700ee7002de6
:10069000e4d0013dedb2e3e70225e1e71c410f257f
:1006a000019ba4b21f793d4011d021001000fff73b
:1006b00017fd002806d1013dedb2012333700f2351
:1006c0009f43d0e7032df8d00135edb2f7e70125c0
:1006d000f5e71c1bd4e7fee7e40100203c01002005
:1006e00040010020ff01000001feffffff3f00006e
:1006f0000f008ee7f7b580213d4a3e4c1369c900d3
:1007000023400b43136153692340194351610b2468
:10071000002840d00368198800231f0001939ab273
:1007200091423ad80224002f35d0019b00201b04af
:100730003b439c46012110250d346346c3400b42c8
:1007400011d02d4bc35c1f2b35d82c4e5a08921953
:1007500016780b422cd026402e431670284a9b1840
:100760001a780a431a7001302028e6d10024254d5a
:10077000fff7aefc244b2c701e7aa6422bd1fff75c
:10078000a7fc6b469b883400eb82fff7a1fc01239a
:100790001d4aaf8213722000febd4468da00a21821
:1007a0001488019d01332543019552881743b6e70c
:1007b000a6430e43d1e7203b144edbb25a089219f0
:1007c00016780b4204d026402e431670104ac6e716
:1007d000a6430e43f9e7fff77bfceb8a019a1a4325
:1007e000ea82fff775fcab8a3b43ab82d3e7c04696
:1007f00000440042fff8fffff224000030440041b3
:1008000040440041004c0042e4010020b04400415b
:10081000c04400410b23002802d0024b1860002383
:100820001800704740010020f7b5070001910b2424
:1008300000290ed000280cd02c4d083c2b7a002b20
:1008400007d0023c042b04d0294e737b5bb2002bf3
:1008500003da2000febd2c72fbe7022403685b79fb
:10086000013ba342f5d8fff733fc3378a343337041
:10087000204b1f60019beb60fff778fd80221e4b31
:10088000d204da67bff34f8fbff36f8f0723b372c2
:10089000fff71efc0122737a802113437372174bfa
:1008a000c9041a70c023164a5b00d150c622ff202b
:1008b000134b920099583b6800045b799b050340f9
:1008c000104801400b430e498b5080220023d20474
:1008d0000a602b80fff748fc061ebcd10423288841
:1008e0002b723400fff760fcb3e7c046e401002040
:1008f000004c00423c01002004e100e0870200209f
:1009000000e100e0ffff00ff0b2300280ad003688e
:100910001a8802238a4205d3043359438268053b6f
:100920008b54002318007047030010b50b20002bd8
:1009300016d01a68093814888c4211d392789b68b3
:10094000402a0ed18d203a3a4a4380009a1890806e
:100950000020062251435b181978043a0a431a70a2
:1009600010bd803ad2b2012af3d806224a43014888
:100970009a18ece767050000f8b506000b2500297a
:1009800014d0002812d00268002a0fd0176880887f
:100990003b88093d984209d23f48013d037a042b28
:1009a00004d03e4c637b5bb2002b01da2800f8bd1b
:1009b00002257b79013bab42f8d8394b01611a60c3
:1009c000384b0f271d70fff7d1fc06233168b28822
:1009d000886853434968d2008a185179c3185b88e4
:1009e000b0790f4091791a18c91bc9b292b28a40e6
:1009f0001b1a9bb28b4092b2a28407222a499bb257
:100a0000e384cb7f294f93431a00042313438022ae
:100a1000cb77274bd204da67bff34f8fbff36f8fcb
:100a2000fff756fb0122a37a1343a372fff750fb93
:100a3000a37a2b43a372fff74bfb0122237a1343c4
:100a40002372fff745fb637a80222b436372c02336
:100a5000d2045b00fa50ff20c622336892001b6864
:100a600000045b79b9589b050340124801400b43d1
:100a7000bb508023db043b60fff72afb0122637934
:100a800013436371074b1d70fff722fbb088fff71c
:100a90008bfb00258ae7c046e4010020004c0042a1
:100aa0003c01002087020020024c004200e100e0ef
:100ab00004e100e0ffff00ff70b5094b03201d7843
:100ac000022d0bd10122074c1a70fff701fb23788e
:100ad000ab432370fff7fcfa0020607170bdc04685
:100ae00087020020004c00420222074b997ac9b2cb
:100af000114202d0987a02439a720122114202d026
:100b0000997a0a439a727047004c0042f8b5fff791
:100b1000dffa02221f4c237893432370fff7e4ff90
:100b2000a08ba18b1c4c1d4a238812685b00d152fc
:100b30001b4b80b21b78012b02d0022b10d0f8bdca
:100b4000238801332380fff70ffb002805d120887d
:100b5000fff72afb04232372f1e7e3689847eee7e7
:100b60000f22104b25881e68e9007368002759186a
:100b70004b791a408b799a4201d29b1adfb2062137
:100b8000f8406943b3685b185880022323722369d5
:100b9000e4e7c046004c0042e40100204001002090
:100ba000870200203c01002070b5fff791fa022275
:100bb0000025064c237893432370fff789fae582da
:100bc000fff786fa024ba5821d7270bd004c0042f1
:0c0bd000e401002024207047132070472f
:020000040000fa
:100bdc00f0b587b00090009b0b20002b00d1e2e118
:100bec00002603275b68049602931b8801960593e5
:100bfc000396049b059a93421ed1009b1a681378a6
:100c0c0059b200290bda0820002101268446049ce5
:100c1c0088b2844200d9ffe07f210b401370039b04
:100c2c00002b00d009e1019801231178002800d194
:100c3c005be10b4313705ae1009bb5009b685d1997
:100c4c001e236a681178194001d001232b702b7870
:100c5c00042b73d00ad8022b2ed043d8012b23d0cf
:100c6c00049b033601339bb20493c2e7852b00d15e
:100c7c0082e0862b00d1a9e0072bf1d1298953887a
:100c8c0099425fd9c91a009b0298db6840799b5d39
:100c9c0089b20341dbb28b4254d86b78002b69d1fb
:100cac0001232b701770dbe703930029d8d10223a3
:100cbc002b7008236b70d3e76978002910d0528809
:100ccc00042904d92a810139697001237ce02b891c
:100cdc009342f8d002d9013b2b81f4e70133fbe7b7
:100cec002f70bde7298953889942b9d0009ad268f0
:100cfc0010d9cb1a0299925d49799bb20a41d2b2b2
:100d0c009a42add8029b1b79002ba9d007222a70de
:100d1c006b70dae792195b1a11789bb299429fd8e3
:100d2c009378002b05d00499009801f0e1f9002884
:100d3c0096d104232b70029b9b78e9e72989538871
:100d4c00994202d92f700023b4e7009a5b1ad2683b
:100d5c009bb2921911789942f4d29378002b06d059
:100d6c000499009801f0c4f9002800d078e76b785a
:100d7c00002b47d0013bcbe7029b00991b7a0968fb
:100d8c000b7128895388984207d986232b70029bb4
:100d9c009b786b700123019316e0009a1b1ad268a2
:100dac009bb291190a784978140001310c41012148
:100dbc00121bd2b201919a4200d251e786232b70ba
:100dcc00029b9b786b700b00039349e7288953882f
:100ddc00984209d96b78002b01d12f7001e0013baf
:100dec006b70012301933be7009a1b1ad2689bb2ec
:100dfc0091190a784978140001310c41121bd2b2b6
:100e0c009a4204d285232b70029bdb78e8e76b783f
:100e1c00002be2d0013bbce70c2500984d438068c9
:100e2c0045196f683878304205d164462d78a54352
:100e3c0001d0304338700131e9e6029b597a002920
:100e4c0000d1f0e6802310785b4203431370012934
:100e5c0000d0e8e600218bb20393049b88b2834256
:100e6c0000d8e0e60c20009b48439b680825181826
:100e7c00029303781c00ac4315d0852b01d0032bb7
:100e8c002ed10325009bdf682b004b43fb189b786e
:100e9c009c46002b07d000231e000595049c9c4209
:100eac0008d8002e1cd1012540680378ab43037091
:100ebc000131d0e7039c9c420fd00c255d43029c72
:100ecc002d5d042d01d0862d07d1059d5d437d1927
:100edc00ad78654501d10126049b01339bb2dde75a
:100eec000123406805782b43e1e799431170528840
:100efc00584b11001b88c8318b4251d99b1a9bb29d
:100f0c009c466346c82b4dd96346c83b9bb29c4656
:100f1c00009b1b685a88c8325a801a79002a00d064
:100f2c0070e05a79002a01d0013a5a719a79002a54
:100f3c0001d0013a9a71009a50688679002e07d038
:100f4c005a79002a04d1078891b28f4234d85e7145
:100f5c00c579002d07d09a79002a04d1068891b260
:100f6c00b1423cd39d71009b5b68da78002ac8d0f3
:100f7c001f880c23002103207b4302938bb2bb42be
:100f8c00bfd20c22009b4a439b689a181578852d7a
:100f9c0004d15578002d38d0013d55700131ede765
:100fac00934202d3002007b0f0bd2b495918891a7f
:100fbc00c829f7d9013ba1e70c21009c5143a46837
:100fcc0061180d78032d01d0082d06d14c680d89c0
:100fdc006488ac4201d901350d810132b4e70c2192
:100fec0000985143806841180878032801d00828dc
:100ffc0006d14c6808896788874201d2013808817c
:10100c000132ace7013a1a71ade701240500147006
:10101c0052684d431070009ad2685519ad78002d66
:10102c00bcd0029c02321c1901920394039a934285
:10103c00b4d0019a1678ae4206d101225e6834789b
:10104c00144201d01a703070019a0c3303320192a1
:0c105c00ece7c046b2010020ffff0000de
:020000040000fa
:101068000b23f0b587688fb007900493002f1bd02f
:10107800c268002a18d043681968019101990029ab
:1010880012d002921a790a235343fb180d930023b6
:10109800049308930d9bbb4209d16a462021079b04
:1010a80052181b6812781a7004980fb0f0bd029b92
:1010b8000c205b889c46029b62461b790393634421
:1010c80005936b469b890993634499b20023059c59
:1010d800a2422edb002562462e000599914233dca0
:1010e8006a4213400122397811400b916cd039893a
:1010f8004a005218921992b292083a81002d65d18d
:10110800029a1578012d00d9a0e152790a92cf2ac6
:1011180000d99be1002b5bd13b817e223b7093433e
:10112800089a0a371343dbb20893029b0a330293e7
:10113800b0e704005443019d645d852c01d10a0089
:101148000123013292b2c2e70c20504301990918d9
:101158004c6809896488641aa4b221b20a910021f2
:1011680006910a99002900dd0694624524d1029966
:101178000024087801280fd103998c180c214c43be
:1011880001990c3c0c19616824894888001b0024cb
:1011980000b2a04200dd84b20699029809190089bc
:1011a80089b2884205d8301c8e4200d2081c01251d
:1011b80086b2013292b290e701990c38081841685a
:1011c80000894c88201ae2e73e8199e72b0097e7cf
:1011d80000220a9b16001b090c930c2063460599f4
:1011e800994200dde1e0b44500d0f0e0012d00d0e7
:1011f800f7e00b00434301990c3bcb1859681b8956
:101208004988c91a634601335843019b09b2181823
:10121800436800895b881b1a1bb2181c002b00da74
:101228000020012300b20693884206db0b1c00292c
:1012380000da002319b200230693059b0c20013b1a
:101248009e4200d0d1e00023012d0dd163465843c2
:10125800019b181843685c880389e41a24b2231c8c
:10126800002c00da00231bb203980f2800d9c4e031
:1012780000200c2405900698012800d0c1e0039ea8
:10128800a64089b29bb2b6b292b2994200d2bbe0f4
:10129800d21a90b2c31ac91889b2220000f0d2ff3c
:1012a8000123a340c01a80b2039b301880b2022bde
:1012b80006d9012d00d0b0e0059a099900f0c2ffc7
:1012c8008022031c5201904201d9684b1b8898b2b6
:1012d800002d13d10f230a9a1a400fd02821514309
:1012e8002b00814201d8401a83b280224900520162
:1012f800511a89b20c22180000f0a4ff0c230c9a92
:101308009b1a18410123934099b2013b984200d996
:1013180088e00b9b80b20400002b22d0bc88031b02
:101328009bb21ab2012d09d14d08002a00db7be0df
:101338006d42954200dc94e0cb181ab2022693b2b3
:101348005d1cb543adb2002d0bd05b08002a04da52
:1013580053429bb25b085b421bb2e418a4b201394a
:101368000c40029bfe880299b8809d7958790978cb
:10137800a31b9bb21ab201290ad10009814089b284
:101388004808002a55da4042904203ddc9180ab2db
:10139800002a5fda5242bb7812b29a424edc00232e
:1013a8007f2252421343dbb2b7e604005c43019943
:1013b8000c19616824894988091b09b2002903ddd1
:1013c800914201dd0a001e0001339bb207e770431a
:1013d800019b0c381818436859880389c91a09b23f
:1013e80024e700230693190027e7731c4343019859
:1013f800c31858681b8944882fe7042008240590df
:1014080039e76046361a3be75b1a98b2511a411819
:1014180089b2220000f016ff46e70999059a0139ba
:1014280089b24be7481e74e7aa4287dd5a1a12b2fe
:1014380084e782420edd5a1a12b2a9e700237d70b2
:10144800bb70b442abd0fc800223a9e7022304930b
:10145800002362e67b789a42a1dd0023bd707b7091
:10146800efe7531c00d073e77be7c046d82600009f
:020000040000fa
:10147800b40100201c000000000000000000002053
:101488000c000000000000000b020020010000001a
:1014980000000000f8010020130000000100000017
:1014a8005fb400864a03eb00000000000000aa5564
:1014b800016ea0008302002001000000000000006f
:1014c80062020020010000000000000084020020e9
:1014d800010000000000000063020020010000007d
:1014e800000000007a020020010000000000000057
:1014f800800200200300000001000000000102003b
:101508007402002006000000010000000a004030bc
:10151800000300004401002050000000010000000a
:1015280000010004000004000002000400000400a0
:10153800040000100000040008000010000004006f
:101548000001001000000400000200100000040068
:10155800040000200000040008000020000004002f
:101568000001002000000400000200200000040028
:101578004c0200200c000000010000007402002052
:101588004401002054000020940100201e000000a7
:1015980001000000140100140100140101140101ec
:1015a80014010114010114010214010214010214ae
:1015b80001020000580200200a000000010000009b
:1015c8000a00040005001405140100000c020020a4
:1015d8001000000001000000480000205802002010
:1015e800b8000020940100201c0200201000000018
:1015f800010000000a000300780200208002002099
:101608000119060064020020080000000100000023
:101618002c0200201c0200202c02002010000000d8
:1016280001000000000000000c0000205400002011
:1016380050000020d001002014000000010000002c
:1016480000000200048a0a00140001000600048a4f
:10165800080014003c0200201000000001000000f7
:10166800840200206c02002090000020d00100209d
:101678006c0200200800000001000000b8000020f3
:10168800020000000c0000202801000000000000fb
:101698007b020020010000000000000085020020fd
:1016a8000100000000000000860200200100000088
:1016b80000000000340100200100000000000000cc
:1016c8008702002001000000010000000100000066
:1016d800e401002014000000000000003801002090
:1016e8000c00000000000000b20100200200000011
:1016f800000000007c020020040000000000000040
:1017080000000000000000002222222222222222c1
:020000040000fa
:10171800f0b5c64600b5002000f0cefe954da846af
:101728000024d3e043461c70200000f083ff06002d
:10173800012000f07fff0700200000f085ff33063e
:1017480031d48d4a982380214901d1503b0630d4a9
:10175800894a982380218901d150874b98220121f9
:101768009950013199500231995004319950783a81
:101778009a6120329a61303a9a6170329a610028ef
:1017880000d1a9e0200000f069ffc0b27b4b1870bf
:101798001a7852091a701b78dbb2072b6fd89b0096
:1017a800774ad3589f46744a942380214901d150df
:1017b800cce7714a942380218901d150cde76e4a44
:1017c80094230121d15087e06b4a94230121d15001
:1017d8000131d15080e0684a94230121d150013170
:1017e800d1500231d15077e0634a94230121d1507e
:1017f8000131d1500231d1500431d1506ce05e4bef
:1018080094220121995001319950023199500431a3
:101818009950743a5a615fe0574b942201219950cc
:10182800013199500231995004319950743a5a61f2
:1018380020325a6150e0504b9422012199500131d5
:1018480099500231995004319950743a5a612032b2
:101858005a61303a5a613fe0474b9422012199502e
:10186800013199500231995004319950743a5a61b2
:1018780020325a61303a5a6170325a612ce03e4b3c
:10188800982201219950013199500231995004311f
:101898009950783a9a6120329a61303a9a61703256
:1018a8009a6119e0374b1a70012000f0cdfe364bd3
:1018b80018701b78002b17d12f4b98228021c90153
:1018c800995049009950802292029a6100f008fbd1
:1018d8002b78012b00d125e72a4b1b782200032bfc
:1018e800e0d80133dab2dde7012000f0b7fec0b27c
:1018f800264b18701a7892081a701a78214b1978a2
:1019080053009b18224a9b5c8b4222d91a4a942383
:101918008020c001d0501d4b1a7853009a181c4bd8
:101928009b185b788b421ad9134a942380210902a9
:10193800d150164b1a7853009a18154b9b189a7861
:10194800104b1b789a4210d90b4b802292025a6195
:10195800bce7094a98238020c001d050dbe7064a3b
:10196800982380210902d150e3e7034b8022920299
:101978009a61abe783020020004400413401002053
:10198800682500007b0200208602002085020020d6
:04199800ac1f000080
:020000040000fa
:10199c00f0b583b07a4b1b781b0708d1794c250026
:1019ac001335207800f006fe0134a542f9d15520fc
:1019bc0000f000fe724b187800f0fcfd6b46002224
:1019cc00da8006331b889bb2092b53d86b469c1dbf
:1019dc006d4e10e0012000f0edfd228853009b18a5
:1019ec00985d00f0e7fd238801339bb223802388a8
:1019fc009bb2092b3ed8208880b200f0fbfd05007d
:101a0c00c0b200f0d7fd2d0ae8b200f0d3fd20885b
:101a1c0080b200f0f9fd0500c0b200f0cbfd2d0a3c
:101a2c00e8b200f0c7fd208880b200f0e3fd0500ad
:101a3c00208880b200f0e8fd2d1aadb2e8b200f0bb
:101a4c00b9fd280a00f0b6fd208880b200f0e6fd52
:101a5c000500c0b200f0aefd2d0ae8b200f0aafd00
:101a6c00208880b200f0e4fd0306b3d4002000f01f
:101a7c00a1fdb2e76b460022da8006331b889bb2cd
:101a8c00424a526812799a4247d96b469c1d3f4e86
:101a9c00350036e0002000f08dfd228893009b1865
:101aac005b00aa68944663441f89f8b200f082fd7b
:101abc00380a00f07ffd228893009b185b00ea68cf
:101acc00944663441f89f8b200f074fd380a00f0a4
:101adc0071fd228893009b185b00aa6894466344ae
:101aec00df88f8b200f066fd380a00f063fd238849
:101afc0001339bb2238023889bb26a6812799a4285
:101b0c000bd9228893009b185b00b2689b5cdb07a7
:101b1c00c0d5012000f04efdbfe71d4b1b681879a6
:101b2c0000f048fd6b460022da800633194a5268f1
:101b3c001b889bb29178994212d96b469c1d154d0e
:101b4c0023889bb29268d05c00f034fd238801336b
:101b5c009bb223806a6823889bb291789942efd814
:101b6c000d4b187800f026fd054b1878421c1a70a6
:101b7c0000f020fdaa2000f01dfd03b0f0bdc04612
:101b8c000b020020f8010020940100203c020020f0
:0c1b9c004c0200206402002062020020c5
:020000040000fa
:101ba800f0b502008db00b20002a6ad05568116884
:101bb800ab7801934b7802932b7b002b3ed000240b
:101bc80020002b889c46019b5b000393029b5e00d0
:101bd8006746a3b29f4256d86b7b984200d87be0f9
:101be800cb6802995b18197801311970116853682c
:101bf8004878c968085c997b88421fd169469d6806
:101c0800029b0989e81803780391002b53d0013b04
:101c1800dbb26e466f46b68800213e823e8a0124ba
:101c2800b44667468eb2b74247d8002cedd0037051
:101c38000023180051688978994247d8029b694661
:101c48005b000a93019b56685b08013306936b4659
:101c58009b888b818b890b9300239c460393338845
:101c680003998b4244d8029b01990133dbb28b4222
:101c78008941b0680b40c05c716808700020126828
:101c880053700db0f0bd062363438f68fb185f885f
:101c98004b689b5b9f420ad9fb1a9bb21f1c83426d
:101ca80000d2071cb8b2039b0134f61890e79f4294
:101cb800f9d2db1bf1e70f23abe7039fb74203d051
:101cc8006e5c9e4200d100240131aae71168c96800
:101cd800c85401339bb2ade75b088342aed9cb68e9
:101ce80002995b1819780029a8d001391970a5e75d
:101cf8000623039910684b438168cb1804931b781b
:101d0800db065b0f40d161464068490041180591e8
:101d18000499059849880a9c0993015301999942a5
:101d28002ed9002005995d00491908910400012168
:101d38000de09f420ad0059d6700ed5b0795089d61
:101d48002f88079dbd4215d10131c9b20134019dcb
:101d5800e7b2bd42edd8069c8c4204d9844206d92c
:101d68004118a14203db089b1b880993019b01339f
:101d7800dbb2d3e7079dbd42e8d20130c0b2e5e748
:101d88006946049b898c5980039b0b9901339bb24c
:0e1d9800039363468c4663449bb29c465fe710
:020000040000fa
:021da600704784
:020000040000fa
:101da8003d490b6a3d4a1a4081235b0013430b628d
:101db8000a000823d1680b42fcd0394b5b689b02b0
:101dc800fe22d203134006221343334a93610423ad
:101dd800d1680b42fcd0334b334a5a60334a9a607d
:101de8001a0053785bb2002bfbdb2e4b304a5a604b
:101df8001a0053785bb2002bfbdb2a4b2d4a5a6042
:101e08002d4a9a601a0053785bb2002bfbdb224afa
:101e1800938c80218b4393841023d1680b42fcd090
:101e2800264b1a68920e3f2a33d0254b1b689b0518
:101e38009b0d92021343184a93621a4b8622d201d1
:101e48005a80154a1023d1680b42fcd0124b1d4a08
:101e5800da621a001023d1680b42fcd00e4b06221e
:101e68009a841a004023d1680b42fcd00d4b164ac5
:101e78005a601a0053785bb2002bfbdb094b134afc
:101e88005a80134a5a80134a5a80134b134a1a62cb
:101e98007047203ac9e7c046000800400000ffcf5d
:101ea80020608000000c004003060100037d000054
:101eb8000106010002030100021f000024608000e7
:101ec80028608000dc050a280007010004420000a1
:101ed80017400000224100000004004020000900d3
:020000040000fa
:101ee80010b5274b1b78012b06d0264b1b78012bee
:101ef8000cd0fff74ffd10bd23492448fef790fc96
:101f08000028f2d11e4b00221a70eee71d4b00226a
:101f18001a70fef77bfa002820d11d48fff740fe13
:101f280000280fd11b48fef755fe002810d11a488b
:101f3800fff796f8002816d0184b04221a70fff7fe
:101f480029fd10e0154b02221a70fff723fde9e77f
:101f5800124b03221a70fff71dfde8e70f4b012211
:101f68001a70fff717fd0b4b1b681b787f2b03d8e4
:101f78000b4b01221a70bce7014b01221a70b8e71b
:101f8800630200207a020020b52600004c020020df
:101f9800640200200c0200203c02002062020020a3
:041fa8008302002090
:020000040000fa
:101fac0014000014000013010012020011030010b1
:101fbc0004000f05000e06000d07000c08000b09ad
:101fcc00000a0a00090b00080c00070d00060e00a1
:101fdc00050f000410000311000212000113000091
:101fec001400001400001301001202001103001071
:101ffc0004000f05000e06000d07000c08000b096d
:10200c00000a0a00090b00080c00070d00060e0060
:10201c00050f000410000311000212000113000050
:10202c00140000140100130200120300110400102c
:10203c0005000f06000e07000d08000c09000b0a26
:10204c00000a0b00090c00080d00070e00060f001b
:10205c00051000041100031200021300011300010b
:020000040000fa
:10206c00f0b5c6461f4a204b00b50021934203d25f
:10207c00197001339342fbd10b231c4a9c46083b3d
:10208c0098461368546819000026214311d0170094
:10209c0091680c3700290fd11a19002c03d01e702f
:1020ac0001339342fbd13a00136854681900214361
:1020bc00edd104bc9046f0bd6146c91a1d195118ea
:1020cc00002c05d05a1c505c187013009542f9d1a5
:1020dc00434623405a1e9341a4081c19a4003f19df
:1020ec003a00e1e7440100200000002078140000d1
:020000040000fa
:1020fc00f7b50c25c3684d439c46032382684b43bc
:10210c0055196c6863442d8964889f781b78641b0f
:10211c00e41aa3b201930025436860461e88b542b9
:10212c0001d10020febd8d4218d08378bb4215d161
:10213c0013787b33dbb2012b15d913899c4653687a
:10214c005b889c450ad264461b1b04789bb2a34255
:10215c0004d91b1b019c9bb29c4204d30135adb22c
:0a216c0003300c32dbe70120dce752
:020000040000fa
:022176007047b0
:020000040000fa
:10217800164b174a1a60174a1a61002244215a540a
:1021880001315a5401315a5401315a540a315a54be
:10219800503956201954013019543a3135385854a9
:1021a8000d495e30195010301950c0215a54013170
:1021b8005a5401315a5401315a5409315a5401318f
:1021c8005a5401315a5401315a547047004400415d
:0c21d800f0000200f08002000ff0004058
:020000040000fa
:1021e40070b500f0aff91348fef782fa1248fef713
:1021f4000ffb00240f4d21002800fef783fb210074
:102204002800fef78ffb0134a4b20a2cf3d10b4d46
:1022140000240b4ee1b22a00300000f0b3f901347f
:10222400a4b206350a2cf5d1064800f083f8fff76e
:10223400a0ff70bd4c020020a40000205400002028
:082244000c0200203c02002006
:020000040000fa
:10224c00013210b5d2b2002906d1134b180010bdc3
:10225c00013a4000d2b280b203b2002b01db002a5b
:10226c00f6d10bb2002b11da0023002aeed01cb2ef
:10227c00002ceadb5b00013a9bb2d2b2884203d35a
:10228c00401a013380b29bb24908eee70132490093
:0c229c00d2b289b2e5e7c046ffff0000a7
:020000040000fa
:1022a80010b5064c2378002b07d1054b002b02d024
:1022b800044800e000bf0123237010bdb4010020d2
:1022c8000000000000000000044b10b5002b03d0f4
:1022d8000349044800e000bf10bdc04600000000ec
:0822e800b80100200000000015
:020000040000fa
:1022f00010b50a4b98470a4b9847fff7b7fe094bb2
:10230000ff229343084a9360084b9847084b98472d
:10231000084b9847fff700fafee7c046d7260000b3
:10232000d72600000000000000ed00e0812300003f
:08233000d7260000d7260000ab
:020000040000fa
:1023380030b584680b23002c10d0c16800290dd05b
:102348000022036806311a704068631c05790a2068
:10235800684301302418a34202d10023180030bd7d
:102368001a7008780a315870d81c0280581d0280eb
:08237800d81d02800a33eee7d4
:020000040000fa
:1023800070b500260c4d0d4c641ba410a64209d15b
:102390000026fdf78dfe0a4d0a4c641ba410a642d0
:1023a00005d170bdb300eb5898470136eee7b30096
:1023b000eb5898470136f2e7bc000000bc00000073
:0823c000bc000000c000000099
:020000040000fa
:1023c80030b5002818d0002918d00d4a0124072557
:1023d80004e003881385023000290bd00139137eed
:1023e8002342fcd053682b40012bf2d0037813858d
:1023f8000130f1e7012030bd0020fce70120fae7b9
:04240800001400427a
:020000040000fa
:10240c00bff35f8f62b60c4bc02080001a581202cb
:10241c00120ac02109060a431a5008221a60183001
:10242c001a5806491140c02212040a431a5080223d
:10243c00d2041a607047c04600e100e0ffff00ffc5
:020000040000fa
:10244c000d4b01221a801a00937a5bb2002bfbdb36
:10245c00094b80221a801a00937a5bb2002bfbdbab
:10246c00054b01229a611a00937a5bb2002bfbdbbd
:0c247c00014b0122da717047001400408f
:020000040000fa
:102488000a4b0b4a1a600b4a9a81c02292025a6080
:102498001a00d369002bfcd1044a136802210b43ac
:1024a8001360d369002bfcd17047c046001400426a
:0824b800040110402bf6ffffa8
:020000040000fa
:1024c00010b50a4b06225a60fff756fefff76cfc68
:1024d000fff7daff00f0e2f8fff765fcfff7b6ff61
:1024e000fff780fefff792ff10bdc046004000419d
:020000040000fa
:1024f00080a0020304050607202122232425262785
:10250000282908090a0b10111213141516172c2d5f
:102510002e2f07001300350090003f1c0b05030110
:020000040000fa
:1025200010b5074a107ac0b2064b1871c12111725a
:102530001b68002b02d0034a9168984710bdc04623
:0825400000140040000000201f
:020000040000fa
:1025480010b5054b1968054800f0aaf8142000f0ea
:102558003ff800f025f810bd30010020cd2600001e
:020000040000fa
:10256800c6170000d0170000de170000f0170000a3
:1025780006180000201800003e180000601800002f
:020000040000fa
:102588000b23002809d0002a07d00c234b4381686d
:0e259800c91801230b7000234a601800704719
:020000040000fa
:0225a600fee74e
:020000040000fa
:1025a800044a138802210b431380937a5bb2002bf1
:0825b800fbdb7047001400403a
:020000040000fa
:1025c00000b583b06b46d871073301211800fff7bf
:0625d000fbfe03b000bd9c
:020000040000fa
:0225d600fee71e
:020000040000fa
:1025d800034b98611a00937a5bb2002bfbdb7047c0
:0425e800001400409b
:020000040000fa
:1025ec0010b5034b01221a70142000f049f810bded
:0425fc006302002056
:020000040000fa
:1026000043001b185b000248c31858887047c04637
:042610005400002052
:020000040000fa
:1026140043001b189b000248c31818897047c04622
:04262400b8000020da
:020000040000fa
:1026280043001b185b000248c31898887047c046cf
:04263800540000202a
:020000040000fa
:10263c00034b9a6843001b189b00d05c7047c04644
:04264c000c0200205c
:020000040000fa
:10265000034b9a6883001b185b00d05c7047c04630
:042660003c02002018
:020000040000fa
:10266400034b9a6883001b185b00d318d888704703
:042674003c02002004
:020000040000fa
:1026780003b47146490840004900095a49008e448c
:0426880003bc7047d8
:020000040000fa
:10268c00024b1a88801818807047c046b20100208f
:020000040000fa
:0c269c00014b88225a607047004000414a
:020000040000fa
:0c26a800014b1860996070470000002092
:020000040000fa
:0c26b400014b01221a7070477a020020ce
:020000040000fa
:0c26c00010b5fef711fafef721fa10bd6c
:020000040000fa
:0826cc0010b5fff78dff10bdf2
:020000040000fa
:0226d400fee71f
:020000040000fa
:0226d60070474b
:020000040000fa
:0226d8000010f0
:020000040000fa
:0200000400807a
:0440000077c700d8a6
:020000040000fa
:0200000400807a
:044004005c00ffff5e
:00000001FF
